:020000040800F2
:1000000000000120C5020008CD020008D10200084E
:1000100045030008490300089103000800000000A0
:10002000000000000000000000000000D9030008EC
:10003000DD03000800000000E1030008210F0008B4
:10004000F5030008F5030008F5030008F5030008B0
:10005000F5030008F5030008F5030008F5030008A0
:10006000F5030008F5030008F5030008F503000890
:10007000F5030008F5030008F5030008F503000880
:10008000F5030008F5030008F50300080000000070
:10009000000000000000000000000000F503000860
:1000A000F5030008F5030008F5030008F503000850
:1000B000F5030008F5030008F5030008F503000840
:1000C000F5030008F5030008F5030008F503000830
:1000D000F5030008F5030008F50300080000000020
:1000E000F5030008F5030008F50300080000000010
:1000F000000000000000000000000000F503000800
:1001000000000000F5030008F5030008F5030008EF
:1001100000000000000000000000000000000000DF
:10012000F5030008F5030008F5030008F5030008CF
:10013000F5030008000000000000000000000000BF
:10014000000000000000000000000000F5030008AF
:10015000F5030008F5030008F5030008F50300089F
:10016000F5030008F503000800000000000000008F
:10017000000000000000000000000000000000007F
:1001800000000000F503000800000000000000006F
:10019000F503000800B583B000F044FA384B394A43
:1001A0001360394A136039490CE00A684B6801F161
:1001B0000C04886803E01168196004330432984223
:1001C000F9D82146324B9942EFD32E4B1A68314B66
:1001D0009A4204D12C4B1A682F4B9A4200D0FEE76A
:1001E000274B2E4A13602E4A13602E4B0AE0194605
:1001F00051F8082B5B6802E00020106004329A423C
:10020000FAD30B46284A9342F1D3244B1B6813B907
:10021000234B1B6803B1FEE700F010FA694601A802
:1002200000F022F9214C224B1C1BA410002504E0F5
:100230001E4B53F8253098470135AC42F8DC1D4C75
:100240001D4B1C1BA410002504E01A4B53F825304D
:1002500098470135AC42F8DC0099019800F0E0FEC7
:100260000546164C164B1C1BA41004E0013C134B16
:1002700053F824309847002CF8DC284600F0D0F8DA
:10028000BABADECA0000002090000020F80300087F
:1002900010040008785634123254769898000020E2
:1002A0006C0100201004000820040008200400084D
:1002B000200400082004000820040008200400088E
:1002C0002004000808B5FFF765FF00BF00BEFEE789
:1002D0001EF0040F0CBFEFF30880EFF309807146A6
:1002E000414A10472DE9F04182B004468846134B3D
:1002F0005E6B9F6B9D6A1B6B13F0020F0DD00F4B53
:10030000DB6A002B09DA4BF6AB6100F07BF920B118
:100310004FF00042094BDA620CE0094800F0E2F8C5
:10032000CDF800803B4632462946204600F0F2F8E0
:1003300000BEFEE702B0BDE8F08100BF00ED00E0C6
:10034000941D000800BEFEE71EF0040F0CBFEFF383
:100350000880EFF309807146244A10472DE9F041E7
:1003600082B004468846084B5E6B9F6B9D6A0748C7
:1003700000F0B8F8CDF800803B46324629462046CA
:1003800000F0C8F800BEFEE700ED00E0A41D000884
:100390001EF0040F0CBFEFF30880EFF309807146E5
:1003A000134A10472DE9F04182B004468846084BB5
:1003B0005E6B9F6B9D6A074800F094F8CDF8008053
:1003C0003B4632462946204600F0A4F800BEFEE730
:1003D00000ED00E0B01D000800BEFEE700BEFEE735
:1003E00000BEFEE770470000E50200085D0300085C
:0803F000A503000800BEFEE7B2
:1003F800FC1E00080000002094000020FC1E0008DD
:10040800000000100000001098000020700100207B
:080418000000001000000010BC
:10042000FEE700BF08B50D4B1B6813B90C4A0B4B18
:100430001A600A4B1A68C31C23F0030313440949CA
:100440008B4206D900F084FF0C2303604FF0FF308D
:1004500008BD02490B60104608BD00BF9C0000208B
:100460007001002000FC002001230360014B0B60A1
:10047000704700BF040000202DE9F04385B004461A
:100480000F46435613BB042528462146ABBE0446FF
:100490001FE03546102E28BF1025002306E014F972
:1004A000011B04AA1A4402F8101C0133AB42F6D314
:1004B00004AA1344002203F8102CE9464FF0040864
:1004C00040464946ABBE8046761B00E00E46002EF5
:1004D000DFD1384605B0BDE8F08300BF08B5FFF7AF
:1004E000CBFF08BD0FB400B583B004AB53F8042BA9
:1004F00001938021064800F05DFF002803DD0146DE
:100500000348FFF7EBFF03B05DF804EB04B070475E
:10051000A4000020F8B504460D4617461E4626489E
:10052000FFF7E0FF21682548FFF7DCFF61682448FA
:10053000FFF7D8FFA1682348FFF7D4FFE1682248FE
:10054000FFF7D0FF21692148FFF7CCFF6169204800
:10055000FFF7C8FFA1691F48FFF7C4FFE1691E4804
:10056000FFF7C0FF1D48FFF7BDFF29461C48FFF7F6
:10057000B9FF1C4CE16A1C48FFF7B4FF216B1B4814
:10058000FFF7B0FFE16B1A48FFF7ACFF15F0800FE3
:1005900003D039461748FFF7A5FF15F4004F03D0E5
:1005A00031461548FFF79EFF1448FFF79BFF069959
:1005B0001348FFF797FFF8BD781C0008881C000857
:1005C000981C0008A81C0008B81C0008C81C0008DB
:1005D000D81C0008E81C0008F81C0008081D0008CA
:1005E000141D000800ED00E0241D0008341D000863
:1005F000441D0008541D0008641D0008741D0008F7
:100600007C1D000883691A888A4207D10268033A70
:10061000012A05D80233836101207047002070470A
:100620000020704708B500F00DF8024B024A9A60AE
:1006300008BD00BF00ED00E00000000808B500F0B4
:1006400009F808BD4FF00062014B9A60704700BF87
:1006500000ED00E0224B9B6803F00C03042B07D055
:10066000082B09D0002B2DD11E4A1F4B1A602CE0FD
:100670001E4A1D4B1A6028E0194B5A685B6803F04C
:100680003F0312F4800F09D0184AB2FBF3F2144B67
:100690005B68C3F3881303FB02F208E0114AB2FB64
:1006A000F3F30F4A5168C1F3881101FB03F20C4BBD
:1006B0005B68C3F3014301335B00B2FBF3F30A4A07
:1006C000136002E0074A084B1A60054B9B68C3F3AE
:1006D0000313074AD15C044A1368CB401360704788
:1006E000003802400024F4000C00002040787D0116
:1006F000C01D000808B54FF4803000F023FC012035
:1007000000F016FC012000F025FC022000F022FC85
:10071000002000F0C7FB002000F0FCFB00F0B8FB5D
:1007200008BD00BF024A136801331360704700BF61
:10073000300100202DE9D04300241EE0154B03EBCF
:10074000041398685A6886180027134BD3E9008968
:10075000B94508BFB0450FD30023B8EB000669F1D7
:1007600000073046394600F067FC134304D1094BBB
:1007700003EB0413DB6898470134022CDED90649E9
:10078000D1E90023013243F10003C1E90023BDE8B0
:10079000D08300BF081E00082801002008B50120F2
:1007A00000F096FB024800F0ABFB012008BD00BF43
:1007B0002507000808B500F061FB054B1B68002BFE
:1007C000FBD0034A1368013B1360FFF7B3FFF4E764
:1007D0003001002008B500F097F808BD08B5364A8A
:1007E000136864331360354B1B78012B20D013B191
:1007F000022B43D008BD0121002000F0A5F84FF4E2
:100800008031012000F0A0F84FF48031022000F088
:100810009BF8294B1A6840F6B8339A424AD1002314
:10082000254A13600121254A1170254A137008BD1D
:100830004FF48031002000F087F80121084600F0D5
:1008400083F84FF48031022000F07EF81A4B1B68C9
:10085000B3F57A6F2ED10022174B1A60184B1B7814
:100860001BB90222154B1A7004E0022B02D10022A0
:10087000124B1A700122124B1A7008BD4FF48031CE
:10088000002000F061F84FF48031012000F05CF8A6
:100890000121022000F058F8074B1B68B3F5FA6FEE
:1008A00008D10022044B1A600122044B1A70022264
:1008B000034B1A7008BD00BF38010020340100202E
:1008C0003C01002008B50E4B1B78012B0BD013B157
:1008D000022B10D008BD0121084600F05BFA01226E
:1008E000074B1A7008BD0B21064800F083FA02225C
:1008F000034B1A7008BD1C2000F09EFA08BD00BF13
:100900003D010020381E000810B582B001238DF88B
:10091000063002238DF8073000240EE0094B13F84F
:1009200034208DF8042003EBC4035B788DF8053088
:1009300001A800F017FB0134E4B2022CEED901202B
:1009400002B010BD441E000810B5012903D0B1F556
:10095000803F12D023E0134B13F8304003EBC00369
:1009600059785B68012B01D1012201E04FF48032FC
:10097000204600F037FB012010BD0A4B13F8304031
:1009800003EBC00359785B68012B02D14FF480322E
:1009900000E00122204600F025FB012010BD0020D0
:1009A00010BD00BF441E0008054A5368023353605F
:1009B000272B04D9134601221A7000225A6070476F
:1009C00040010020034A0223137000235360024AAF
:1009D00013707047540100204001002038B50546CF
:1009E00000241AE045FA04F313F0010F09D00C4B70
:1009F00003EBC4010122097913F8340000F0F2FA84
:100A000009E0074B03EBC4014FF48032097913F876
:100A1000340000F0E7FA0134E4B2072CE2D938BD23
:100A20005C1E000808B5FFF7D9FF054B4FF4803274
:100A300093F8541093F8500000F0D4FA08BD00BFAA
:100A40005C1E000808B5FFF7C9FF044B012293F8AC
:100A5000541093F8500000F0C5FA08BD5C1E000861
:100A600008B53820FFF7DEFF054B012293F844104C
:100A700093F8400000F0B6FA0222024B1A7008BD4B
:100A80005C1E00084001002008B5064B4FF4803280
:100A900093F8441093F8400000F0A4FA0322024BAC
:100AA0001A7008BD5C1E00084001002008B50D202A
:100AB000FFF7B8FF054B012293F8441093F840006C
:100AC00000F090FA0422024B1A7008BD5C1E000868
:100AD0004001002008B5064B4FF4803293F84410D3
:100AE00093F8400000F07EFA0522024B1A7008BD10
:100AF0005C1E00084001002008B50120FFF792FFAE
:100B0000054B012293F8441093F8400000F06AFA74
:100B10000622024B1A7008BD5C1E0008400100202E
:100B200008B5064B4FF4803293F8441093F8400018
:100B300000F058FA0722024B1A7008BD5C1E00082C
:100B40004001002008B5114B1B78072B1CD8DFE8AB
:100B500003F004070A0D10131619FFF725FF08BD4F
:100B6000FFF77EFF08BDFFF78FFF08BDFFF79EFF71
:100B700008BDFFF7AFFF08BDFFF7BEFF08BDFFF7D9
:100B8000CFFF08BDFFF71EFF08BD00BF40010020DA
:100B900010B582B001238DF8063002238DF807309E
:100BA00000240EE0094B53F834208DF8042003EBA9
:100BB000C4035B688DF8053001A800F0D3F9013457
:100BC000E4B20A2CEED902B010BD00BF5C1E0008D2
:100BD00008B51B4B1B7803B3012B30D1194B5B7845
:100BE000012B04D1174B18787F30C0B207E0022BDD
:100BF00004D1144B18784138C0B200E08020FFF7D0
:100C000011FF114B012293F8441093F8400000F0BB
:100C1000E9F900220A4B1A7008BD0B4B4FF48032E1
:100C200093F8441093F8400000F0DCF90122044BE3
:100C30001A700023054A1370024A1370537008BDDE
:100C400028000020500100205C1E00081800002031
:100C500008B5184B5B7943B3174A1278A2B1012A41
:100C600026D1144A11681279D31AC85CFFF7EAFE3C
:100C7000124B012293F8441093F8400000F0B2F9AF
:100C800000220D4B1A7008BD0C4B4FF4803293F8C4
:100C9000441093F8400000F0A5F90122064B1A70A9
:100CA000044A5379013B537108BD0022044B1A706A
:100CB00008BD00BF48010020240000205C1E000881
:100CC0001800002008B5134B1B788BB1012B20D1E5
:100CD0000022104B1A70104B1878FFF7A3FE0F4B31
:100CE000012293F8441093F8400000F07BF908BD0E
:100CF0000A4B4FF4803293F8441093F8400000F010
:100D000071F90123034A13700021054A1170024A48
:100D1000137008BD10000020140000205C1E0008A5
:100D20001800002008B5084B1B7A012B06D013B120
:100D3000022B06D008BDFFF78BFF08BDFFF7C2FFEF
:100D400008BDFFF745FF08BD1800002008B5034B9C
:100D50001B78012B01D1FFF7E5FF08BD180000202B
:100D600008B5064B1B78012B02D0022B03D008BD1F
:100D7000FFF7E8FE08BDFFF7E9FF08BD54010020BA
:100D800008B5FFF705FF0122014B1A7008BD00BF2F
:100D900054010020102816D8022916D8B8B1C1B1C4
:100DA000114B1B78022B16D1104B1B78ABB9B3B982
:100DB00010B40E4A01231370022414720C4A1070EE
:100DC000517018460DE00020704700207047002049
:100DD00070470020704700207047002070470120B6
:100DE000704710BC704700BF54010020180000205D
:100DF0005001002090B102460C4B1B78022B0FD102
:100E00000B4B1B7873B910B4094B012018700024E8
:100E10001C72084B19711A60597105E00020704767
:100E2000002070470020704710BC7047540100201C
:100E30001800002048010020094B1B78022B0AD122
:100E4000084B1B784BB9074A012313701372064AEB
:100E5000107018467047002070470020704700BF90
:100E6000540100201800002014000020024B1868D4
:100E700000F00400704700BF10E000E0034A136870
:100E800043F0010313600020704700BF10E000E052
:100E9000034A136843F0020313600020704700BF49
:100EA00010E000E010B1012807D00DE0074A1368F8
:100EB00023F00403136000207047044A136843F0D2
:100EC00004031360002070470120704710E000E029
:100ED00010B50446FFF7CAFF10B940F6354001E0EF
:100EE00046F2A81004FB00F0B0F1807F04D2013874
:100EF000024B5860002010BD022010BD10E000E041
:100F000018B1034A1060002070470220704700BFEC
:100F10005C010020014B98600020704710E000E069
:100F200008B5024B1B68984708BD00BF5C01002054
:100F3000034A936823F0030318439060012070472D
:100F400000380240024A13681843106001207047BD
:100F500000380240024A136B1843106301207047A7
:100F60000038024070B403781D4C54F82360316897
:100F700043785D00032202FA05F321EA0301837836
:100F80001340AB400B433360037854F82360B168DF
:100F900045786D0002FA05F321EA0301C378AB40FE
:100FA0000B43B360037854F8236075688178C1F30C
:100FB0008001437801FA03F32B437360037854F8FC
:100FC0002350E96843785C00A24021EA020283785A
:100FD000C3F3C103A3401343EB60012070BC70470F
:100FE000B41E0008012A09D10C4B53F82020936944
:100FF000012000FA01F1194391617047B2F5803F79
:1010000009D1064B53F82000836902FA01F1194314
:101010008161012070470020704700BFB41E0008A6
:1010200008B5FFF767FBFFF7D5FBFFF7A9FEFFF752
:10103000B5FBFFF7BFFB08BD53B94AB9002908BF8C
:1010400000281CBF4FF0FF314FF0FF3000F07EB999
:10105000ADF1080C6DE904CE00F006F8DDF804E00F
:10106000DDE9022304B070472DE9F0478C460E46B7
:101070000446089D002B50D18A4217466CD9B2FA1B
:1010800082FEBEF1000F0BD0CEF1200420FA04F452
:1010900001FA0EF644EA060C02FA0EF700FA0EF414
:1010A0004FEA1749220CBCFBF9F01FFA87F809FB3D
:1010B00010C642EA064600FB08F3B34209D9F61906
:1010C00000F1FF3280F02281B34240F21F810238EA
:1010D0003E44F61AA2B2B6FBF9F309FB136642EAE4
:1010E000064403FB08F8A04509D9E41903F1FF32CF
:1010F00080F00A81A04540F20781023B3C44C8EBE6
:10110000040443EA00400021002D62D024FA0EF4CA
:1011100000232C606B60BDE8F0878B4207D9002D5F
:1011200055D0002185E841000846BDE8F087B3FAB4
:1011300083F1002940F09080B34202D3824200F252
:10114000F880841A66EB03060120B446002D40D0D7
:1011500085E81010BDE8F08712B90127B7FBF2F758
:10116000B7FA87FEBEF1000F35D1F31B4FEA1748DF
:101170001FFA87FC0121B3FBF8F0220C08FB1036A4
:1011800042EA06460CFB00F3B34207D9F61900F118
:10119000FF3202D2B34200F2CE801046F61AA2B25B
:1011A000B6FBF8F308FB136642EA06440CFB03FCAB
:1011B000A44507D9E41903F1FF3202D2A44500F295
:1011C000B5801346CCEB040443EA00409CE7294673
:1011D0002846BDE8F087CEF1200106FA0EF307FAA3
:1011E0000EF720FA01F94FEA1748CE4049EA030901
:1011F000B6FBF8FA4FEA194408FB1A661FFA87FC97
:1012000044EA06430AFB0CF29A4200FA0EF40AD9A9
:10121000DB190AF1FF3180F087809A4240F2848026
:10122000AAF1020A3B449B1A1FFA89F9B3FBF8F1B1
:1012300008FB113349EA034301FB0CF69E4207D930
:10124000DB1901F1FF326BD29E4269D902393B446E
:101250009B1B41EA0A418EE7C1F1200E22FA0EF4EF
:101260008B40234320FA0EF706FA01F44FEA134CA1
:1012700026FA0EF63C43B6FBFCF9270C0CFB19666C
:101280001FFA83F847EA064609FB08F7B74202FA55
:1012900001F200FA01FA08D9F61809F1FF3041D23B
:1012A000B7423FD9A9F102091E44F61BA0B2B6FB12
:1012B000FCF40CFB146640EA064704FB08F8B8454A
:1012C00007D9FF1804F1FF3028D2B84526D9023CCF
:1012D0001F4444EA0940C8EB0707A0FB02894F45B9
:1012E00044464E4614D329D065B3BAEB040367EBEA
:1012F000060707FA0EFECB40CF404EEA030385E80F
:1013000088000021BDE8F0871346F8E61046E0E6C5
:10131000B8EB020469EB03060138E5E70446D8E7B9
:10132000114695E78146C0E78A467CE7023B3C448C
:1013300048E708460AE702383E442FE7C245E7D3AC
:101340003E46D1E72946BDE8F08700BF704700BFA1
:10135000014B1868704700BF8C00002030B5141E88
:1013600005469BB0184604DA8B232B604FF0FF3004
:101370001DE04FF40273ADF80C3014BF04F1FF33DD
:101380002346029305934FF6FF7300910491ADF845
:101390000E3002461E9B6946284600F073F8431C37
:1013A000BCBF8B232B6014B1009B00221A701BB0B2
:1013B00030BD000007B5009313460A4601460348B6
:1013C0000068FFF7CBFF03B05DF804FB8C00002042
:1013D0002DE9F0478E689E4282460C46914698461B
:1013E0003ED88A8912F4906F3AD0256809696F1A3D
:1013F0006569022305EB450595FBF3F57B1C43442A
:101400009D4238BF1D4653050FD5294600F094FB79
:10141000064698B13A46216900F01AFBA38923F4E5
:10142000906343F08003A38113E02A4600F0E2FBBF
:10143000064670B92169504600F030FB0C23CAF80B
:101440000030A38943F04003A3814FF0FF30BDE893
:10145000F087266165613E44ED1B2660A560464627
:10146000464528BF464632464946206800F0FBFA0A
:10147000A3689B1BA36023681E4426600020BDE870
:10148000F08700002DE9F04F9DB0804603938B89D3
:101490001C060D4616460DD50B695BB9402100F0C0
:1014A0004BFB2860286118B90C23C8F80030CDE048
:1014B00040236B610023099320238DF82930DFF846
:1014C0009CB130238DF82A3037463C4614F8013B56
:1014D0001BB9B7EB060910D003E0252BF9D027463E
:1014E000F3E74B46324629464046FFF771FF01308D
:1014F00000F0A780099B4B4409933B78002B00F038
:10150000A08000234FF0FF320493079305920693C7
:101510008DF853301A930126052221784E4800F0A9
:1015200047FA671C049B38B14B4A801A06FA00F050
:10153000184304903C46EFE7D90644BF20228DF8BB
:1015400053201A0744BF2B228DF8532022782A2AD1
:1015500003D0079A00210A200BE0039A111D12689C
:101560000391002A10DA524243F0020007920490DD
:101570000BE0274601343B78303B092B03D800FBB6
:1015800002320121F5E701B107923B782E2B1ED1E3
:101590007B782A2B0AD1039B1A1D1B680392002B10
:1015A000B8BF4FF0FF330237059310E000230593D7
:1015B000781C19460A24074601303A78303A092A3D
:1015C00003D804FB01210123F5E703B105910322B0
:1015D0003978224800F0ECF940B14023CBEB000011
:1015E00003FA00F0049B18430490013739781C4833
:1015F0008DF8281006227E1C00F0DAF988B1194B0C
:1016000033B9039B073323F007030833039314E034
:1016100003AB00932A46144B04A94046AFF3008065
:1016200007E003AB00932A460F4B04A9404600F0A5
:1016300093F8B0F1FF3F824603D0099B53440993CE
:1016400042E7AB895B0601D4099801E04FF0FF3017
:101650001DB0BDE8F08F00BFC01E0008C61E000808
:10166000CA1E000800000000D11300082DE9F04751
:1016700091461F460A698B68DDF820809342B8BF07
:101680001346C9F8003091F8432006460C4612B1C3
:101690000133C9F800302368990642BFD9F80030F9
:1016A0000233C9F80030256815F0060510D104F1A1
:1016B000190A07E00123524639463046C047013037
:1016C0001AD00135E368D9F800209B1A9D42F1DB5E
:1016D00094F843302268003318BF012392060FD5D7
:1016E000E1185A1C302081F84300224494F8451038
:1016F00082F84310023303E04FF0FF30BDE8F0877B
:1017000004F1430239463046C0470130F4D0226824
:10171000D9F80050E36802F00602042A08BF5D1BF6
:101720002269A3680CBF25EAE57500259342C4BF72
:101730009B1AED184FF000091A344D4509D00123CA
:10174000224639463046C0470130D5D009F101095B
:10175000F3E70020BDE8F0872DE9F04317460A7E45
:1017600085B06E2A984606460C460C9B01F1430E46
:1017700000F0AE8011D8632A22D009D8002A00F0E8
:10178000BB80582A40F0CA8081F84520834955E043
:10179000642A1ED0692A1CD0C0E0732A00F0B080F1
:1017A00009D86F2A2ED0702A40F0B8800A6842F01B
:1017B00020020A603EE0752A24D0782A3AD0ADE0B3
:1017C0001A6801F14205111D1960136884F842304E
:1017D000A8E021681A6811F0800F02D0111D19606D
:1017E00008E011F0400F02F10401196002D0B2F9D3
:1017F000003000E01368002B3CDA2D225B4284F8B5
:10180000432037E021681A6811F0800F02D0111DC3
:10181000196007E011F0400F02F10401196001D0D6
:10182000138800E01368227E5C496F2A14BF0A22E5
:1018300008221BE078225A4984F84520226818685B
:1018400012F0800F00F104051D6003D1550601D58B
:10185000038800E00368D00744BF42F02002226002
:101860001BB9226822F0200222601022002084F896
:10187000430001E049490A226568A560002D08DBA4
:10188000206820F0040020602BB9002D7DD1754622
:101890000CE0002B79D07546B3FBF2F002FB10335D
:1018A000CB5C05F8013D03460028F5D1082A0BD191
:1018B0002368DA0708D5236962689A42DEBF3023BD
:1018C00005F8013C05F1FF35C5EB0E0323612EE061
:1018D00008681A68496910F0800F03D0101D18605D
:1018E000136808E010F0400F02F10400186013685C
:1018F00001D0198000E0196000232361754616E0CD
:101900001A68111D1960156862680021284600F0E8
:101910004FF808B1401B6060636804E004F14205C1
:1019200084F8422001232361002384F84330CDF85A
:1019300000803B4603AA21463046FFF797FE013060
:1019400002D14FF0FF3026E023692A46394630465F
:10195000C0470130F5D023689B0710D5002504F15E
:10196000190907E001234A4639463046C04701308D
:10197000E7D00135E368039A9B1A9D42F2DBE068E9
:10198000039B9842B8BF184605E00B7884F84230B4
:1019900004F142058AE705B0BDE8F083D11E0008D6
:1019A000E21E00080000000000000000000000002F
:1019B00001F0FF01102A2BDB10F0070F08D010F800
:1019C000013B013A8B422DD010F0070F42B3F6D104
:1019D000F0B441EA012141EA014122F007047FF01D
:1019E00000070023F0E80256083C85EA010586EA74
:1019F000010685FA47F5A3FA87F586FA47F6A5FAB0
:101A000087F68EB9EED1F0BC01F0FF0102F00702BB
:101A100032B110F8013B013A83EA010313B1F8D166
:101A20000020704701387047002D06BF3546033847
:101A3000073815F0010F07D1013015F4807F02BF80
:101A4000013015F4C03F0130F0BC0138704700BFD1
:101A500010B5431E0A44914204D011F8014B03F81B
:101A6000014FF8E710BD884210B501EB020301D821
:101A7000421E0BE09842FBD28118D21AD34204D006
:101A800013F8014D01F8014DF8E710BD994204D05B
:101A900011F8014B02F8014FF8E710BD38B50546C3
:101AA000002946D051F8043C0C1F002BB8BFE418A5
:101AB00000F0D6F81F4A1368114613B9636014602A
:101AC00032E0A3420ED92268A018834204BF1868EE
:101AD0005B68636004BF121822600C6024E0A242BD
:101AE00003D813465A68002AF9D118681918A14278
:101AF0000BD12168014458188242196014D1106832
:101B000052685A60014419600EE002D90C232B6020
:101B10000AE021686018824204BF1068526862605F
:101B200004BF091821605C602846BDE8384000F019
:101B300098B838BD6401002070B5CD1C25F00305B0
:101B400008350C2D38BF0C25002D064601DBA942B7
:101B500002D90C23336046E000F082F8234B1C6866
:101B60001A462146A1B10B685B1B0ED40B2B03D97F
:101B70000B60CC18CD501EE08C420DBF63684B68E3
:101B80006360136018BF0C4615E00C464968E9E72E
:101B9000174C23681BB9304600F052F820602946E4
:101BA000304600F04DF8431C18D0C41C24F0030448
:101BB000A0420DD12560304600F053F804F10B002F
:101BC000231D20F00700C31A0ED05A42E25070BD08
:101BD000211A304600F034F80130EBD10C23336089
:101BE000304600F03EF8002070BD00BF64010020C8
:101BF00060010020F8B5074615460E4621B911468A
:101C0000BDE8F840FFF798BF1AB9FFF747FF28462D
:101C1000F8BD00F027F885420ED929463846FFF76F
:101C20008BFF044650B131462A46FFF711FF31467B
:101C30003846FFF733FF01E03046F8BD2046F8BDD7
:101C400038B5064C0023054608462360FEF7EAFB3C
:101C5000431C02D1236803B12B6038BD680100200A
:101C60007047704751F8040C0028BEBF091851F89E
:101C7000043CC01804387047537461636B2066726B
:101C8000616D653A0A000000205230203D20202579
:101C90003038580A00000000205231203D20202515
:101CA0003038580A00000000205232203D20202504
:101CB0003038580A00000000205233203D202025F3
:101CC0003038580A0000000020523132203D2025D3
:101CD0003038580A00000000204C52203D202025BA
:101CE0003038580A00000000205043203D202025B5
:101CF0003038580A0000000020505352203D202563
:101D00003038580A000000004653522F4641523ADC
:101D10000A0000002043465352203D202025303841
:101D2000580A00002048465352203D2020253038D4
:101D3000580A00002044465352203D2020253038C8
:101D4000580A00002041465352203D2020253038BB
:101D5000580A0000204D4D464152203D2025303884
:101D6000580A00002042464152203D2020253038AC
:101D7000580A00004D6973630A000000204C522F7E
:101D80004558435F52455455524E3D2025303858F2
:101D90000A0000005B486172644661756C745D0AFC
:101DA000000000005B4275734661756C745D0A004B
:101DB0005B55736167654661756C745D0A00000070
:101DC00000000000000000000102030406070809EB
:101DD0004C434420544553542041505000000000CF
:101DE0004C4344204D41494E2050524F4752414DA3
:101DF000000000004C4544205374617465204D611F
:101E00006368696E65000000D01D0008FA000000DC
:101E100064000000C5080008E01D00080200000082
:101E200000000000610D0008F41D000864000000BF
:101E300010270000DD070008456D616E20446177C2
:101E40006F6F64000100000001000000010100004C
:101E5000010000000102000001000000000000007D
:101E60000000000000000000010000000000000071
:101E7000020000000000000003000000000000005D
:101E80000400000000000000050000000000000049
:101E90000600000000000000070000000000000035
:101EA0000800000000000000090000000000000021
:101EB0000A00000000000240000402400008024046
:101EC000232D302B2000686C4C0065666745464723
:101ED00000303132333435363738394142434445A6
:101EE0004600303132333435363738396162636415
:031EF00065660024
:081EF40074F1FF7F0100000002
:101EFC0078563412A0000020000000000024F400EA
:101F0C0001FFFFFF01FFFFFF0000000000000000C9
:101F1C000F00000001FFFFFF01FFFFFF00000000AA
:101F2C0000000000000000000000000000000000A5
:101F3C000000000000000000000000000000000095
:101F4C000000000000000000000000000000000085
:101F5C000000000000000000000000000000000075
:101F6C000000000000000000000000000000000065
:101F7C000000000000000000000000002C00002009
:041F8C0032547698BD
:040000050800019559
:00000001FF
