:020000040800F2
:1000000000000120C5020008CD020008D10200084E
:1000100045030008490300089103000800000000A0
:10002000000000000000000000000000D9030008EC
:10003000DD03000800000000E1030008E5030008FC
:10004000F5030008F5030008F5030008F5030008B0
:10005000F5030008F5030008F5030008F5030008A0
:10006000F5030008F5030008F5030008F503000890
:10007000F5030008F5030008F5030008F503000880
:10008000F5030008F5030008F50300080000000070
:10009000000000000000000000000000F503000860
:1000A000F5030008F5030008F5030008F503000850
:1000B000F5030008F5030008F5030008F503000840
:1000C000F5030008F5030008F5030008F503000830
:1000D000F5030008F5030008F50300080000000020
:1000E000F5030008F5030008F50300080000000010
:1000F000000000000000000000000000F503000800
:1001000000000000F5030008F5030008F5030008EF
:1001100000000000000000000000000000000000DF
:10012000F5030008F5030008F5030008F5030008CF
:10013000F5030008000000000000000000000000BF
:10014000000000000000000000000000F5030008AF
:10015000F5030008F5030008F5030008F50300089F
:10016000F5030008F503000800000000000000008F
:10017000000000000000000000000000000000007F
:1001800000000000F503000800000000000000006F
:10019000F503000800B583B000F044FA384B394A43
:1001A0001360394A136039490CE00A684B6801F161
:1001B0000C04886803E01168196004330432984223
:1001C000F9D82146324B9942EFD32E4B1A68314B66
:1001D0009A4204D12C4B1A682F4B9A4200D0FEE76A
:1001E000274B2E4A13602E4A13602E4B0AE0194605
:1001F00051F8082B5B6802E00020106004329A423C
:10020000FAD30B46284A9342F1D3244B1B6813B907
:10021000234B1B6803B1FEE700F010FA694601A802
:1002200000F022F9214C224B1C1BA410002504E0F5
:100230001E4B53F8253098470135AC42F8DC1D4C75
:100240001D4B1C1BA410002504E01A4B53F825304D
:1002500098470135AC42F8DC0099019800F000FBAA
:100260000546164C164B1C1BA41004E0013C134B16
:1002700053F824309847002CF8DC284600F0D0F8DA
:10028000BABADECA0000002074000020F80300089B
:100290001004000878563412325476987800002002
:1002A00010010020100400082004000820040008A9
:1002B000200400082004000820040008200400088E
:1002C0002004000808B5FFF765FF00BF00BEFEE789
:1002D0001EF0040F0CBFEFF30880EFF309807146A6
:1002E000414A10472DE9F04182B004468846134B3D
:1002F0005E6B9F6B9D6A1B6B13F0020F0DD00F4B53
:10030000DB6A002B09DA4BF6AB6100F07BF920B118
:100310004FF00042094BDA620CE0094800F0E2F8C5
:10032000CDF800803B4632462946204600F0F2F8E0
:1003300000BEFEE702B0BDE8F08100BF00ED00E0C6
:100340000413000800BEFEE71EF0040F0CBFEFF31D
:100350000880EFF309807146244A10472DE9F041E7
:1003600082B004468846084B5E6B9F6B9D6A0748C7
:1003700000F0B8F8CDF800803B46324629462046CA
:1003800000F0C8F800BEFEE700ED00E0141300081E
:100390001EF0040F0CBFEFF30880EFF309807146E5
:1003A000134A10472DE9F04182B004468846084BB5
:1003B0005E6B9F6B9D6A074800F094F8CDF8008053
:1003C0003B4632462946204600F0A4F800BEFEE730
:1003D00000ED00E02013000800BEFEE700BEFEE7CF
:1003E00000BEFEE770470000E50200085D0300085C
:0803F000A503000800BEFEE7B2
:1003F80098130008000000207800002098130008D7
:1004080000000010000000107800002014010020F7
:080418000000001000000010BC
:10042000FEE700BF08B50D4B1B6813B90C4A0B4B18
:100430001A600A4B1A68C31C23F0030313440949CA
:100440008B4206D900F03EFA0C2303604FF0FF30D8
:1004500008BD02490B60104608BD00BF7C000020AB
:100460001401002000FC002001230360014B0B60FD
:10047000704700BF040000202DE9F04385B004461A
:100480000F46435613BB042528462146ABBE0446FF
:100490001FE03546102E28BF1025002306E014F972
:1004A000011B04AA1A4402F8101C0133AB42F6D314
:1004B00004AA1344002203F8102CE9464FF0040864
:1004C00040464946ABBE8046761B00E00E46002EF5
:1004D000DFD1384605B0BDE8F08300BF08B5FFF7AF
:1004E000CBFF08BD0FB400B583B004AB53F8042BA9
:1004F00001938021064800F017FA002803DD014629
:100500000348FFF7EBFF03B05DF804EB04B070475E
:1005100084000020F8B504460D4617461E462648BE
:10052000FFF7E0FF21682548FFF7DCFF61682448FA
:10053000FFF7D8FFA1682348FFF7D4FFE1682248FE
:10054000FFF7D0FF21692148FFF7CCFF6169204800
:10055000FFF7C8FFA1691F48FFF7C4FFE1691E4804
:10056000FFF7C0FF1D48FFF7BDFF29461C48FFF7F6
:10057000B9FF1C4CE16A1C48FFF7B4FF216B1B4814
:10058000FFF7B0FFE16B1A48FFF7ACFF15F0800FE3
:1005900003D039461748FFF7A5FF15F4004F03D0E5
:1005A00031461548FFF79EFF1448FFF79BFF069959
:1005B0001348FFF797FFF8BDE8110008F81100088D
:1005C0000812000818120008281200083812000843
:1005D0004812000858120008681200087812000833
:1005E0008412000800ED00E094120008A412000834
:1005F000B4120008C4120008D4120008E412000863
:10060000EC12000883691A888A4207D10268033A0B
:10061000012A05D80233836101207047002070470A
:100620000020704708B500F00DF8024B024A9A60AE
:1006300008BD00BF00ED00E00000000808B500F0B4
:1006400009F808BD4FF00062014B9A60704700BF87
:1006500000ED00E0224B9B6803F00C03042B07D055
:10066000082B09D0002B2DD11E4A1F4B1A602CE0FD
:100670001E4A1D4B1A6028E0194B5A685B6803F04C
:100680003F0312F4800F09D0184AB2FBF3F2144B67
:100690005B68C3F3881303FB02F208E0114AB2FB64
:1006A000F3F30F4A5168C1F3881101FB03F20C4BBD
:1006B0005B68C3F3014301335B00B2FBF3F30A4A07
:1006C000136002E0074A084B1A60054B9B68C3F3AE
:1006D0000313074AD15C044A1368CB401360704788
:1006E000003802400024F4000C00002040787D0116
:1006F0003013000810B582B001238DF806300223B4
:100700008DF8073000240EE0094B13F834208DF8E3
:10071000042003EBC4035B788DF8053001A800F0DA
:1007200043F80134E4B2002CEED0012002B010BD39
:100730004013000808B561B1012916D10C4B03EB39
:10074000C0014A68497813F8300000F06DF80120C4
:1007500008BD074B03EBC0014A68D243497813F840
:10076000300000F061F8012008BD002008BD00BF86
:1007700040130008034A936823F003031843906072
:100780000120704700380240024A13681843106085
:100790000120704700380240024A136B184310636F
:1007A000012070470038024070B403781D4C54F8A3
:1007B0002360316843785D00032202FA05F321EAE1
:1007C000030183781340AB400B433360037854F844
:1007D0002360B16845786D0002FA05F321EA030150
:1007E000C378AB400B43B360037854F8236075685B
:1007F0008178C1F38001437801FA03F32B437360DE
:10080000037854F82350E96843785C00A24021EA59
:1008100002028378C3F3C103A3401343EB600120BA
:1008200070BC704748130008012A08D10B4B53F8DD
:10083000203058698A4002435A610120704712F102
:10084000020F08D1054B53F8203058698A40024006
:100850005A61012070470020704700BF481300080C
:1008600008B54FF48030FFF78FFF0120FFF782FFBC
:100870000120FFF791FF0220FFF78EFF0420FFF712
:100880008BFFFFF737FF01210020FFF753FF002107
:100890000846FFF74FFF01210020FFF74BFF002123
:1008A0000846FFF747FF01210020FFF743FF002123
:1008B0000846FFF73FFF0248FFF714FEFEE700BFC0
:1008C00054130008014B1868704700BF70000020E7
:1008D00030B5141E05469BB0184604DA8B232B60F6
:1008E0004FF0FF301DE04FF40273ADF80C3014BF31
:1008F00004F1FF332346029305934FF6FF730091F3
:100900000491ADF80E3002461E9B6946284600F061
:1009100073F8431CBCBF8B232B6014B1009B0022D7
:100920001A701BB030BD000007B5009313460A468D
:10093000014603480068FFF7CBFF03B05DF804FBF6
:10094000700000202DE9F0478E689E4282460C46DA
:10095000914698463ED88A8912F4906F3AD025681D
:1009600009696F1A6569022305EB450595FBF3F5E7
:100970007B1C43449D4238BF1D4653050FD5294675
:1009800000F092FB064698B13A46216900F018FB48
:10099000A38923F4906343F08003A38113E02A46E4
:1009A00000F0E0FB064670B92169504600F02EFBCE
:1009B0000C23CAF80030A38943F04003A3814FF011
:1009C000FF30BDE8F087266165613E44ED1B26607F
:1009D000A5604646464528BF4646324649462068F9
:1009E00000F0F9FAA3689B1BA36023681E442660ED
:1009F0000020BDE8F08700002DE9F04F9DB0804653
:100A000003938B891C060D4616460DD50B695BB901
:100A1000402100F049FB2860286118B90C23C8F870
:100A20000030CDE040236B610023099320238DF833
:100A30002930DFF89CB130238DF82A3037463C4608
:100A400014F8013B1BB9B7EB060910D003E0252BC6
:100A5000F9D02746F3E74B46324629464046FFF792
:100A600071FF013000F0A780099B4B4409933B784C
:100A7000002B00F0A08000234FF0FF320493079377
:100A8000059206938DF853301A930126052221789A
:100A90004E4800F045FA671C049B38B14B4A801A57
:100AA00006FA00F0184304903C46EFE7D90644BF2D
:100AB00020228DF853201A0744BF2B228DF8532093
:100AC00022782A2A03D0079A00210A200BE0039AF1
:100AD000111D12680391002A10DA524243F00200FD
:100AE000079204900BE0274601343B78303B092BFA
:100AF00003D800FB02320121F5E701B107923B78F0
:100B00002E2B1ED17B782A2B0AD1039B1A1D1B6822
:100B10000392002BB8BF4FF0FF330237059310E06C
:100B200000230593781C19460A24074601303A78B9
:100B3000303A092A03D804FB01210123F5E703B168
:100B4000059103223978224800F0EAF940B14023A8
:100B5000CBEB000003FA00F0049B1843049001372C
:100B600039781C488DF8281006227E1C00F0D8F930
:100B700088B1194B33B9039B073323F007030833BC
:100B8000039314E003AB00932A46144B04A9404698
:100B9000AFF3008007E003AB00932A460F4B04A994
:100BA000404600F093F8B0F1FF3F824603D0099B26
:100BB0005344099342E7AB895B0601D4099801E0ED
:100BC0004FF0FF301DB0BDE8F08F00BF6413000888
:100BD0006A1300086E1300080000000045090008B1
:100BE0002DE9F04791461F460A698B68DDF82080A1
:100BF0009342B8BF1346C9F8003091F84320064627
:100C00000C4612B10133C9F800302368990642BF7F
:100C1000D9F800300233C9F80030256815F0060510
:100C200010D104F1190A07E0012352463946304633
:100C3000C04701301AD00135E368D9F800209B1A6B
:100C40009D42F1DB94F843302268003318BF012342
:100C500092060FD5E1185A1C302081F84300224437
:100C600094F8451082F84310023303E04FF0FF3050
:100C7000BDE8F08704F1430239463046C0470130F1
:100C8000F4D02268D9F80050E36802F00602042A82
:100C900008BF5D1B2269A3680CBF25EAE575002526
:100CA0009342C4BF9B1AED184FF000091A344D450A
:100CB00009D00123224639463046C0470130D5D0FD
:100CC00009F10109F3E70020BDE8F0872DE9F043C1
:100CD00017460A7E85B06E2A984606460C460C9B3F
:100CE00001F1430E00F0AE8011D8632A22D009D85A
:100CF000002A00F0BB80582A40F0CA8081F84520C5
:100D0000834955E0642A1ED0692A1CD0C0E0732AAA
:100D100000F0B08009D86F2A2ED0702A40F0B88039
:100D20000A6842F020020A603EE0752A24D0782A40
:100D30003AD0ADE01A6801F14205111D196013683F
:100D400084F84230A8E021681A6811F0800F02D0C0
:100D5000111D196008E011F0400F02F10401196043
:100D600002D0B2F9003000E01368002B3CDA2D22EB
:100D70005B4284F8432037E021681A6811F0800F45
:100D800002D0111D196007E011F0400F02F10401BB
:100D9000196001D0138800E01368227E5C496F2A35
:100DA00014BF0A2208221BE078225A4984F8452001
:100DB0002268186812F0800F00F104051D6003D14D
:100DC000550601D5038800E00368D00744BF42F010
:100DD000200222601BB9226822F020022260102229
:100DE000002084F8430001E049490A226568A560B3
:100DF000002D08DB206820F0040020602BB9002DB6
:100E00007DD175460CE0002B79D07546B3FBF2F02E
:100E100002FB1033CB5C05F8013D03460028F5D1F9
:100E2000082A0BD12368DA0708D5236962689A4239
:100E3000DEBF302305F8013C05F1FF35C5EB0E039D
:100E400023612EE008681A68496910F0800F03D00A
:100E5000101D1860136808E010F0400F02F1040044
:100E60001860136801D0198000E019600023236125
:100E7000754616E01A68111D196015686268002130
:100E8000284600F04DF808B1401B6060636804E03C
:100E900004F1420584F8422001232361002384F8F1
:100EA0004330CDF800803B4603AA21463046FFF789
:100EB00097FE013002D14FF0FF3026E023692A4629
:100EC00039463046C0470130F5D023689B0710D51E
:100ED000002504F1190907E001234A463946304646
:100EE000C0470130E7D00135E368039A9B1A9D4261
:100EF000F2DBE068039B9842B8BF184605E00B7828
:100F000084F8423004F142058AE705B0BDE8F08379
:100F100075130008861300080000000000000000A0
:100F200001F0FF01102A2BDB10F0070F08D010F89A
:100F3000013B013A8B422DD010F0070F42B3F6D19E
:100F4000F0B441EA012141EA014122F007047FF0B7
:100F500000070023F0E80256083C85EA010586EA0E
:100F6000010685FA47F5A3FA87F586FA47F6A5FA4A
:100F700087F68EB9EED1F0BC01F0FF0102F0070256
:100F800032B110F8013B013A83EA010313B1F8D101
:100F90000020704701387047002D06BF35460338E2
:100FA000073815F0010F07D1013015F4807F02BF1B
:100FB000013015F4C03F0130F0BC0138704700BF6C
:100FC00010B5431E0A44914204D011F8014B03F8B6
:100FD000014FF8E710BD884210B501EB020301D8BC
:100FE000421E0BE09842FBD28118D21AD34204D0A1
:100FF00013F8014D01F8014DF8E710BD994204D0F6
:1010000011F8014B02F8014FF8E710BD38B505465D
:10101000002946D051F8043C0C1F002BB8BFE4183F
:1010200000F0D6F81F4A1368114613B963601460C4
:1010300032E0A3420ED92268A018834204BF186888
:101040005B68636004BF121822600C6024E0A24257
:1010500003D813465A68002AF9D118681918A14212
:101060000BD12168014458188242196014D11068CC
:1010700052685A60014419600EE002D90C232B60BB
:101080000AE021686018824204BF106852686260FA
:1010900004BF091821605C602846BDE8384000F0B4
:1010A00098B838BD0801002070B5CD1C25F00305A7
:1010B00008350C2D38BF0C25002D064601DBA94252
:1010C00002D90C23336046E000F082F8234B1C6801
:1010D0001A462146A1B10B685B1B0ED40B2B03D91A
:1010E0000B60CC18CD501EE08C420DBF63684B687E
:1010F0006360136018BF0C4615E00C464968E9E7C9
:10110000174C23681BB9304600F052F8206029467E
:10111000304600F04DF8431C18D0C41C24F00304E2
:10112000A0420DD12560304600F053F804F10B00C9
:10113000231D20F00700C31A0ED05A42E25070BDA2
:10114000211A304600F034F80130EBD10C23336023
:10115000304600F03EF8002070BD00BF08010020BE
:1011600004010020F8B5074615460E4621B9114680
:10117000BDE8F840FFF798BF1AB9FFF747FF2846C8
:10118000F8BD00F027F885420ED929463846FFF70A
:101190008BFF044650B131462A46FFF711FF314616
:1011A0003846FFF733FF01E03046F8BD2046F8BD72
:1011B00038B5064C0023054608462360FFF732F990
:1011C000431C02D1236803B12B6038BD0C01002001
:1011D0007047704751F8040C0028BEBF091851F839
:1011E000043CC01804387047537461636B20667206
:1011F000616D653A0A000000205230203D20202514
:101200003038580A00000000205231203D202025AF
:101210003038580A00000000205232203D2020259E
:101220003038580A00000000205233203D2020258D
:101230003038580A0000000020523132203D20256D
:101240003038580A00000000204C52203D20202554
:101250003038580A00000000205043203D2020254F
:101260003038580A0000000020505352203D2025FD
:101270003038580A000000004653522F4641523A77
:101280000A0000002043465352203D2020253038DC
:10129000580A00002048465352203D20202530386F
:1012A000580A00002044465352203D202025303863
:1012B000580A00002041465352203D202025303856
:1012C000580A0000204D4D464152203D202530381F
:1012D000580A00002042464152203D202025303847
:1012E000580A00004D6973630A000000204C522F19
:1012F0004558435F52455455524E3D20253038588D
:101300000A0000005B486172644661756C745D0A96
:10131000000000005B4275734661756C745D0A00E5
:101320005B55736167654661756C745D0A0000000A
:101330000000000000000000010203040607080985
:10134000020D0000FEFFFFFF00000240000402400B
:101350000008024048656C6C6F20776F726C640AFD
:1013600000000000232D302B2000686C4C006566C7
:1013700067454647003031323334353637383941E6
:1013800042434445460030313233343536373839FC
:071390006162636465660001
:101398007856341280000020000000000024F40079
:1013A8000000000000000000000000000000000035
:1013B8000000000000000000000000000000000025
:1013C8000000000000000000000000000000000015
:1013D8000000000000000000000000000000000005
:1013E80000000000000000000000000000000000F5
:1013F80000000000000000000000000000000000E5
:08140800100000203254769818
:040000050800019559
:00000001FF
